:100000000C9494020C94DB020C94DB020C94DB0243
:100010000C94DB020C94DB020C94DB020C94DB02EC
:100020000C94DB020C94DB020C9449240C941D25E7
:100030000C94781F0C94DB020C94DB020C94DB0212
:100040000C94DB020C94DB020C94DB020C94DB02BC
:100050000C94DB020C94CF1F0C94DB020C94DB029B
:100060000C94DB020C94DB020C94DB020C94DB029C
:100070000C94DB020C94DB020C94DB020C94DB028C
:100080000C94DB020C94DB020C94DB020C94DB027C
:100090000C94DB020C94DB020C94DB020C94DB026C
:1000A0000C94DB020C94DB020C94DB02514D4B20D0
:1000B0006973207468652062657374207468696E62
:1000C000672065766572210029003A003B003C00FC
:1000D0003D003E003F000000400041004200430060
:1000E000440045000000A8004C001E001F00200036
:1000F000210022004A00E3004B00230024002500D9
:10010000260027002D00645D2B0014001A00080053
:10011000150017004D00E0004E001C0018000C00F8
:10012000120013002F0030003900040016000700F1
:1001300009000A000253E20046000B000D000E0009
:100140000F00330034003200E10064001D001B008A
:10015000060019002A004C000000050011001000E4
:100160003600370052003800000000000000000098
:10017000000000000000000028002C00E600000045
:100180000000500051004F0001000100010001007B
:100190000100010001000000010001000100010058
:1001A0000100010000000100010001000100010048
:1001B0000100010001000100010001005F0060007A
:1001C000610001000100645D010001000100010007
:1001D0000100010001000100010055005C005D000C
:1001E0005E00570001000100010001000100010054
:1001F00001000100010001000100540059005A00F3
:100200005B00560001000100010001000100010037
:100210000100010001000100000001006200620015
:100220003600010001000100000000000000000095
:100230000000000000000000580001000100000064
:1002400000000100010001000100010001000100A7
:100250000100010001000000010001000100010097
:10026000010001000000010001001E001F0020002D
:10027000210022004A0001000100010001000100EC
:1002800001000100010001000100170014001A0024
:10029000080015004D0001000100010001000100EF
:1002A000010001000100010001000A000400160025
:1002B00007000900025301000100010001000100D4
:1002C0000100010001000100010064001D001B008D
:1002D000060019002C002A000000010001000100A6
:1002E000010001000100010000000000000000000A
:1002F00000000000000000000100010001000000FB
:1003000000000100010001000000000000000000EA
:100310002A2B280000000000000000000000000060
:1003200000000029000000002C1E3420212224346B
:100330002627252E362D3738271E1F20212223243D
:1003400025263333362E37381F0405060708090AD9
:100350000B0C0D0E0F101112131415161718191A75
:100360001B1C1D2F3130232D350405060708090AF3
:100370000B0C0D0E0F101112131415161718191A55
:100380001B1C1D2F3130354C000000000000000008
:10039000000000000000000000000000000000005D
:1003A0000000000000000000000000007E0F00D4EC
:1003B000FFFFFFC7000000781603530070006C00B9
:1003C0006900740042006F00610072006400000068
:1003D0000E03650044007500750063006B000000AB
:1003E0000403090409023B00020100A0FA09040009
:1003F0000001030101000921110100012240000751
:10040000058103080001090401000103000000093F
:10041000211101000122B60007058203200001120C
:1004200001000200000008EDFE00000100010200D2
:100430000105010902A10185020901A100050919AF
:10044000012908150025019508750181020501099A
:100450003009311581257F95027508810609381507
:1004600081257F950175088106050C0A38021581E2
:10047000257F950175088106C0C005010980A1018D
:10048000850319012AB700150126B70095017510DB
:100490008100C0050C0901A101850419012AA002EF
:1004A000150126A002950175108100C005010906FD
:1004B000A1018505050719E029E715002501950823
:1004C000750181020507190029EF1500250195F036
:1004D000750181020508190129059505750191022B
:1004E000950175039101C005010906A101050719D0
:1004F000E029E71500250195087501810295017530
:100500000881010507190029FF150026FF0095063F
:1005100075088100050819012905950575019102E5
:10052000950175039101C00011241FBECFEFDAE0E1
:10053000DEBFCDBF04B603FE27C0809113039091A8
:100540001403A0911503B09116038730904BA74078
:10055000B04BD1F4109213031092140310921503B0
:100560001092160314BE84B7877F84BF0FB6F89429
:10057000A89580916000886180936000109260006F
:100580000FBEE0E0F8E3099511E0A0E0B1E0E2E69B
:10059000FFE402C005900D92A838B107D9F723E017
:1005A000A8E8B1E001C01D92A331B207E1F70E94B3
:1005B000EE150C948B270C94000084B1807E84B9D6
:1005C00085B18F6185B98AB1837F8AB98BB18C601F
:1005D0008BB984988C9A089587B18F7387B988B145
:1005E0008F7388B96E98769880B38F7180BB81B312
:1005F0008F7181BB08958AB1837F8AB98BB18C607A
:100600008BB987B18F7387B988B18F7388B96E98AA
:10061000769880B38F7180BB81B38F7181BB879ACD
:100620008F988FE99FE00197F1F700C000004A9989
:1006300010C087988F9A869A8E988FE99FE00197CD
:10064000F1F700C000004B9904C00E941E120C94E8
:10065000F31F089508950C942A030E9436050E9402
:10066000EC020E94DD02EAEEF1E08AE891E01192EC
:100670001192DC0120E11D922150E9F7409621E022
:10068000E63FF207A1F70C945F070E9436050E942F
:10069000EC020E94DD02EAEEF1E011821082138288
:1006A0001282158214821782168211861086138692
:1006B0001286089590E1899FF0011124E657FE4FBC
:1006C00030E020E050E040E061E070E0919199235B
:1006D00059F0DF01119791509C932F5F3F4F2031CC
:1006E0003105A1F7CA010895CB01022E02C0880F7F
:1006F000991F0A94E2F7482B592BEFCFCF9320E1B3
:10070000629FB001112430E020E0A1E0B0E0C1E040
:10071000AD01022E02C0440F551F0A94E2F7482390
:100720005923452B31F0FB01E20FF31FE657FE4F33
:10073000C0832F5F3F4F2031310551F7CF9108958E
:10074000EF92FF920F931F93CF938091FA01811143
:1007500009C08091F6018F5F8093F601811102C07C
:100760000E9401058AEEE82E81E0F82EC0E0C33039
:1007700009F48EC008F07EC0C13009F483C0C230D5
:1007800009F483C06E9A76988C2F0E94C3048C2F34
:100790000E945A038C018C2F0E948F0540E050E08C
:1007A00090E09C01052E02C0359527950A94E2F74A
:1007B0002115310509F072C0463068F74A9972C0B8
:1007C00020E031E0822B932B4B996FC020E032E088
:1007D000822B932B18996CC020E034E0822B932B52
:1007E000199969C020E038E0822B932B1A9966C0D2
:1007F00020E030E1822B932B1B9963C020E030E294
:10080000822B932B1C9960C020E030E4822B932B29
:100810007C995DC040E050E8F701219131917F0162
:10082000842B952B822793278023912389010827E6
:1008300019276C2F0E947E03F701329711830083E2
:10084000C33009F455C008F045C0C13009F44AC0AE
:10085000C23009F44AC06E98769ACF5FC63009F06C
:1008600086CF0E94690781E0CF911F910F91FF9081
:10087000EF900895C43079F0C53009F083CF859AA0
:100880008D9882CF3E9A46987FCF3F9A47987CCFEB
:10089000879A8F9879CF869A8E9876CF2170420F5B
:1008A0005F5F7FCF30E020E08DCF30E020E090CF61
:1008B00030E020E093CF30E020E096CF30E020E041
:1008C00099CF30E020E09CCF30E020E09FCF50E097
:1008D00040E0A2CFC43079F0C53009F0BCCF859894
:1008E0008D9ABBCF3E98469AB8CF3F98479AB5CFDE
:1008F00087988F9AB2CF86988E9AAFCFE82FF0E084
:10090000EE0FFF1FE651FE4F8081918108950895FB
:1009100021E0280F873009F420E08091F90190E070
:1009200002C0959587952A95E2F7817008951F93E7
:10093000CF93DF93162FD42FC091FA01CC23C9F0A7
:100940006AE070E00E942B1DC82F811117C06AE079
:1009500070E0812F0E94A51DC82F81110FC06AE091
:1009600070E08D2F0E94A51DC82F811107C00E9425
:10097000F81D8C2FDF91CF911F9108950E94F81DD3
:100980000E940105F6CF9091FA01992311F085306C
:1009900021F480EA8A95F1F7089526E030E0281BDB
:1009A000310941E050E001C0440F2A95EAF7409533
:1009B00063E080E40C94970440E060E08EE30E94E2
:1009C000970440E161E08EE30E9497044FE06CE001
:1009D0008EE30C9497044FEF66E080E40E94970446
:1009E0004FEF64E080E40E94970440E067E080E419
:1009F0000E9497044FEF63E080E40E9497040C94F8
:100A0000DC041F93CF93DF934C9B29C06AE070E016
:100A100080E40E942B1DEC01892BC1F40E94F81D7B
:100A20008091FA0181110DC011E01093FA018091BB
:100A3000F701811104C00E94EB041093F7010E949A
:100A40002D0CCE01DF91CF911F9108958091FA0175
:100A50008130B9F71092FA011092F701F0CF10929D
:100A6000FA011092F701CFEFDFEFEBCF20EA2A95E2
:100A7000F1F78091F80181110EC00E94251D81E0DF
:100A80008093F8018FEF91EE24E081509040204058
:100A9000E1F700C000000C940105FF920F931F9333
:100AA000CF93DF93D82FF62E8A01C091FA01CC2381
:100AB00001F16AE070E00E942B1DC82F811120C057
:100AC0006AE070E08F2D0E94A51DC82F811118C00B
:100AD0006AE070E08D2F81600E942B1DC82F81116C
:100AE0000FC08AE090E00E94D41DF80180830E942C
:100AF000F81D8C2FDF91CF911F910F91FF900895DA
:100B00000E94F81D0E940105F4CF49EF51E060E01A
:100B100080E40E944D0581111092F9010895CF9251
:100B2000DF92EF92FF920F931F93CF93DF9310E02A
:100B300000E08530F8F40E948505D0E0C0E010E0C8
:100B400000E0C12CD12C7601C3948C2F0E94880424
:100B5000882361F0D701C6010C2E04C0880F991FAD
:100B6000AA1FBB1F0A94D2F7082B192B2196C83055
:100B7000D10559F7C801DF91CF911F910F91FF90D7
:100B8000EF90DF90CF9008951F93CF93DF93182FAE
:100B9000D62FC091FA01CC2311F16AE070E08EE308
:100BA0000E942B1DC82F81111FC06AE070E082EAED
:100BB0000E94A51DC82F811117C06AE070E0812F27
:100BC0000E94A51DC82F81110FC06AE070E08D2F13
:100BD0000E94A51DC82F811107C00E94F81D8C2FEF
:100BE000DF91CF911F9108950E94F81D0E94010589
:100BF000F6CF282F30E09091FC01992369F04FEF58
:100C000050E0509389004093880030938B002093EC
:100C10008A00682F0C94C4053093890020938800C3
:100C2000F4CF81EA8093800089E0809381008FE98E
:100C30009FE00197F1F700C00000089578940E94AA
:100C4000110627982F9A8AB18F718AB98BB1806E5D
:100C50008BB954985C9A1092FC018FE10E94F905BF
:100C60002FEF89E698E1215080409040E1F700C0E5
:100C7000000080E00E94F9052FEF89E698E12150FD
:100C800080409040E1F700C000008FE10E94F9052C
:100C90002FEF89E698E1215080409040E1F700C0B5
:100CA000000080E00C94F90583362DE5920729F0C9
:100CB00084369D4559F081E00895FB0182818823A7
:100CC000D1F38CEA90E00E94AA08F5CFFB01828163
:100CD000882389F381E00E944C0D81E00E94E80C9A
:100CE000882371F081E08093FC0187EC90E001970C
:100CF000F1F700C000008091FB010E94F905DBCFF5
:100D00001092FC01F2CF811110C081E0662399F0AE
:100D10000E94E80C882359F08091FB01803228F46E
:100D20008F5F8093FB010E94F90580E008958AEFB0
:100D30000E94AB09FACF0E94E80C882321F0809131
:100D4000FB018150EECF89EFF3CF9C013A9521153D
:100D50003F4150F5FC01EE27F170BC01662772702F
:100D6000AC01442754709C012227387094FF0EC0B8
:100D700080E1EF2B09F480E0672B09F08062452BBE
:100D800009F08064232B89F08068089581E0EF2BBF
:100D900009F480E0672B09F08260452B09F084603C
:100DA000232B19F08860089580E00895CF93DF9396
:100DB000EC010E94A5069E01205E31092830310514
:100DC00010F0209739F40E94B3098C2FDF91CF9156
:100DD0000C9417090E94090CF8CFCF93DF93EC0114
:100DE0000E946509CE010E94A5069E01205E310980
:100DF0002830310510F0CD2B21F4DF91CF910C94E8
:100E0000BA09DF91CF910C94100CCF93DF93EC01D2
:100E10000E94D606CE01DF91CF910C94ED0681E0C1
:100E200008950C94540608950C9413071F93CF93C0
:100E3000DF9300D000D00F92CDB7DEB749835A833D
:100E40006B833091FD0189819A8131111DC0662328
:100E5000B9F02223A9F00E94F70D182F682F89817D
:100E60009A810E94A40D69817A81812F0F900F9041
:100E70000F900F900F90DF91CF911F910C94D3148E
:100E80000E94D00D182FEFCF0E94F70D69817A8153
:100E9000EDCFFC01262F40815181628173818481D5
:100EA0000C94160781E00895CF93DF93EC0160E086
:100EB0000E944907BE01DF91CF910C9414070E9454
:100EC000CA150E94C9080E94F4190E94711A0C9454
:100ED0001E060C942B0308950E942D0C0E946B0794
:100EE0002FEF84E39CE0215080409040E1F700C068
:100EF00000000C94F31F0F931F93CF93DF938C018B
:100F000061E00E944907EC01B8010E9411078823A3
:100F100009F441C0B801CE010E9460198823D9F1BB
:100F2000B801CE010E94FC1A8823A9F1B801CE01B4
:100F30000E94861B882379F1B801CE010E94D81B3C
:100F4000882349F1B801CE010E94FB1C882319F1C6
:100F5000F8018281882361F0CB35FDE5DF0721F1BF
:100F600070F4C115ECE5DE07A1F0CF3DDC45C9F01A
:100F7000C801DF91CF911F910F910C940F07CC35D1
:100F80008DE5D807A1F0CD35DD4591F70E945C11C4
:100F9000EFCF0E946C0780E0DF91CF911F910F91FE
:100FA00008950E94C912F7CF0E946511E1CF0E94F7
:100FB0006811DECFDF92EF92FF920F931F93CF93D2
:100FC000DF93E82FF0E0E85FFC4FD490282F2695C0
:100FD0002695269530E0F901E855FC4F049187707D
:100FE00010E0082E02C0159507950A94E2F70170EB
:100FF0001127F901E856FC4FE490F12C082E02C0AD
:10100000F594E7940A94E2F791E0E922FF24F901CC
:10101000E857FC4FC491D0E002C0D595C7958A959A
:10102000E2F7C170DD270115110519F081EE0E946C
:101030001709E114F10419F086EE0E9417098D2DAD
:101040000E94AB09EF2819F086EE0E946509012B7A
:1010500019F081EE0E946509CD2B51F08CE2DF91F1
:10106000CF911F910F91FF90EF90DF900C94AB09FF
:10107000DF91CF911F910F91FF90EF90DF90089536
:10108000EF92FF920F931F93CF93DF938C01F62E75
:101090008AE0E82EF8018491882309F454C0813055
:1010A00009F04DC0E8012196FE018491813091F450
:1010B0002196FE0184910E94AB098E010F5F1F4FA4
:1010C0008F2D815038F3EFE9FFE03197F1F700C041
:1010D0000000F7CF823039F4E8012296FE018491B6
:1010E0000E941709EACF833039F4E8012296FE0105
:1010F00084910E946509E1CF8430F9F6E8012296D7
:10110000FE01249190E080E0FE0131962053330BE4
:101110002A30310548F0019780F2EFE9FFE031977E
:10112000F1F700C00000F7CFE89EA001E99E500D46
:101130001124C901840F951F2491EF01E5CF0E946E
:10114000DA07E801BACFDF91CF911F910F91FF909D
:10115000EF90089560E00C944008982F9F709A508B
:10116000963018F0805D0C94DA07895AFCCF089508
:101170000C94B70881E00895CF93C82F0E94BA0855
:10118000882319F0C0FF03C02D9ACF9108952D98A0
:10119000FCCF259A2D980895CF93C82F0E94B808A8
:1011A0008C2FCF910C94BC08CF93DF93CDB7DEB7D3
:1011B0002B970FB6F894DEBF0FBECDBF4F83588775
:1011C00069877A878B8761110E948E111E821D822A
:1011D00085E0FE013796DE01119601900D928A9509
:1011E000E1F78C819D81892B89F449815A816B813A
:1011F0007C818D819E810E948B102B960FB6F89476
:10120000DEBF0FBECDBFDF91CF91089589819A8156
:1012100089238F3F51F3CE0101960E94520781111D
:10122000E4CFEBCFFC01808191810C94390ECF93F8
:10123000C82F882309F447C08CEF8C0F813AA0F4A3
:101240006C2F80910001909101010E94781E8823EB
:1012500029F08C2F0E942C110E94B1118C2F0E941A
:101260002511CF910C94B11180E28C0F883048F495
:10127000C77081E001C0880FCA95EAF70E946E111D
:10128000F0CFEBE5EC0FE33040F4F0E0ED5BFE4F28
:10129000808190E0CF910C94381EE8E5EC0FE731A7
:1012A00050F4F0E0EE0FFF1FEB5EFE4F8081918166
:1012B000CF910C944E1ECD3E30F08C2F0E947C16A8
:1012C000CF910C944F17CF910895882361F19CEF33
:1012D000980F913A20F40E942C110C94B11190E2D5
:1012E000980F983050F4877091E001C0990F8A955B
:1012F000EAF7892F0E947411F0CF9BE5980F933085
:1013000020F490E080E00C94381E98E5980F973117
:1013100020F490E080E00C944E1E8D3E20F00E9460
:10132000D6160C944F1708951F93CF93DF93182F61
:10133000EB010E941709209731F4812FDF91CF91A3
:101340001F910C9465098FE99FE00197F1F700C0A8
:1013500000002197F0CF70E060E0893311F460E580
:1013600070E00C949409882321F00E946E110C9473
:10137000B1110895882321F00E9474110C94B111C9
:101380000895BF92CF92DF92EF92FF920F931F9337
:10139000CF93DF936C01D62FC72FFC0112810581FB
:1013A00002950F700E944311E82E8823A1F0E12ED0
:1013B000112389F08C2F807F803429F080E28D0FFB
:1013C000E12C883040F082E00E9402120E9443111A
:1013D00091E0E82EE926BC2EB2949FE0B922FBE012
:1013E000FB1598F1EB2DF0E0E357F84D0C9429270D
:1013F0000C2F0F70C07F11F00295007F1123A9F010
:10140000002359F080E28D0F883010F0D11109C00F
:10141000802F0E946E110E94B1118D2F0E9417091A
:1014200014C0802F0E948111F6CF8D2F0E94650974
:10143000002359F080E28D0F883010F0D1112CC0BC
:10144000802F0E9474110E94B1112B2D2850330B54
:101450002430310520F40E94011E0E94CC08EE20A9
:1014600009F48EC10E943F1180FD8AC1F6011282EB
:101470000E9439110E94080DC6010E94E10B0E94D2
:101480003911DF91CF911F910F91FF90EF90DF9075
:10149000CF90BF900C94290D802F0E948711D3CF3D
:1014A0002C2F2F70F22EC07FC03219F0F29480EFF3
:1014B000F822DD2369F0D13049F1112391F10023A5
:1014C00051F1F601858180FFA8CF8F70858323C0FD
:1014D000112381F0011106C00E9494118F290E94EE
:1014E000B309B3CF0130C1F70E9494118F290E9434
:1014F0009A11ABCF011106C00E94A7118F2D0E9437
:10150000BA09A3CF013009F4A0CFF6CF112329F0F7
:10151000063008F09ACF8F2DE2CF053008F095CF36
:10152000EDCF002359F3D93349F4FFEF27EE33E031
:10153000F15020403040E1F700C000008D2F0E94A4
:10154000650983CF8C2F86958695837069F08130ED
:1015500009F07BCF8D2F9C2F9370111102C090E06A
:1015600080E00E944E1E71CF8D2F9C2F9370111121
:1015700002C090E080E00E94381E67CF8D2F1123BB
:1015800029F00E947C160E944F175FCF0E94D6164A
:10159000FACF8C2F837009F041C0111156CF4D2F17
:1015A000429546954770440F440F0D2F0F7010E081
:1015B00030E020E0042E04C0000F111F221F331F53
:1015C0000A94D2F760E070E0CB01D4FF0FC06FE067
:1015D00070E080E090E004C0660F771F881F991FBD
:1015E0004A95D2F76095709580959095C695C69569
:1015F000C370602B712B822B932BC23049F058F4AF
:10160000C13019F00E949A0C20CF0E94880C1DCF87
:101610000E94AC0C1ACF0E94860C17CF869511231E
:1016200011F08C2F8170882309F40FCF4D2F429534
:1016300046954770440F440F0D2F0F7010E030E0B7
:1016400020E0042E04C0000F111F221F331F0A9434
:10165000D2F760E070E0CB01D4FF0FC06FE070E024
:1016600080E090E004C0660F771F881F991F4A959D
:10167000D2F76095709580959095C695C695C37084
:10168000602B712B822B932BC23049F058F4C13060
:1016900019F00E947F0DD9CE0E946D0DD6CE0E940A
:1016A000910DD3CE0E94C20CD0CECF70112329F061
:1016B0008C2F0E94080D8D2F12CF8D2F0E94BA09FA
:1016C0008C2F0E94290DC1CED23F89F160F4D03F0A
:1016D000C9F0D13F29F1112309F442C001119DCE77
:1016E0008C2F8F7121C0D33F39F1D43FA1F7112343
:1016F00069F1CF718C2F0E94080D63E08C2F0E943E
:10170000E711A3CE112341F0053008F09ECE8C2FB7
:101710008F710E944C0D99CE063008F096CEF7CF0F
:101720008C2F8F71112369F20E94080D8ECE8C2FA1
:101730008F711123C9F3C5CF112329F08C2F8F711D
:101740000E94F30C82CE0E94CE0C7FCE81E00E94DC
:101750000212023008F479CE82E00E94021275CEA5
:10176000002359F0D93309F0E9CE8FEF97EEE3E08B
:1017700081509040E040E1F7DFCE8C2F8F71A1CFF8
:10178000DF91CF911F910F91FF90EF90DF90CF905D
:10179000BF9008950F931F93CF93DF93EC0168815F
:1017A00079818A810E94430E8C010E94A30D0E94C0
:1017B000850CB801CE01DF91CF911F910F910C9450
:1017C000C109CF93DF93EC018B819C81892B29F098
:1017D0008881998189238F3F59F4DF91CF910895B2
:1017E000CE010E94CA0BCE01DF91CF910C94540719
:1017F000CE010E947B078111F3CF0E944311882301
:1018000061F38A81882349F382E0DF91CF910C94C0
:101810000212882321F00E9481110C94B1110895C5
:10182000882321F00E9487110C94B111089590E053
:1018300080E00E94381E90E080E00E944E1E0E94D0
:101840008E110E9491110E94B1110E9476180C9481
:101850004F170E9433110C94170C0E947E110C94A8
:10186000290CE92FE295EF70E250EE3070F4F0E0D1
:10187000E756F84D0C942927803F19F020F4883E54
:1018800020F481E00895843FE1F380E00895883EEC
:10189000C0F3813FD1F7F5CF93FB882780F90895F6
:1018A000FC01808191810E94390E0C94310CCF9300
:1018B000DF9300D000D00F92CDB7DEB70F900F901E
:1018C0000F900F900F90DF91CF910895CF93DF93FA
:1018D00000D000D000D0CDB7DEB726960FB6F89472
:1018E000DEBF0FBECDBFDF91CF91089508950C9458
:1018F000760C0E94770C60933E0270933F028093B7
:101900004002909341020C94170C08950C94790CAA
:101910000F931F9300913E0210913F0220914002CD
:1019200030914102602B712B822B932B1F910F91D1
:101930000C94790C0F931F9300913E0210913F027B
:10194000209140023091410260237123822393232E
:101950001F910F910C94790C0F931F9300913E02ED
:1019600010913F022091400230914102602771277F
:10197000822793271F910F910C94790C0C94760C6D
:101980000C94BE0C0E94C00C60933A0270933B0210
:1019900080933C0290933D020C94170C60E070E041
:1019A000CB010C94C20C611571058105910529F4D8
:1019B00081E0442361F080E00895DC01CB0104C0A4
:1019C000B695A795979587954A95D2F78170089512
:1019D000482F60913A0270913B0280913C029091B5
:1019E0003D020C94D30C0F931F9341E050E060E054
:1019F00070E08A019B0104C0000F111F221F331FDA
:101A00008A95D2F7C901B8011F910F910C94C20CAD
:101A10000F931F9341E050E060E070E004C0440F7A
:101A2000551F661F771F8A95D2F780913A029091D1
:101A30003B02A0913C02B0913D028A019B01082B20
:101A4000192B2A2B3B2BC901B8011F910F910C9424
:101A5000C20C0F931F9341E050E060E070E004C0BF
:101A6000440F551F661F771F8A95D2F7CB01BA0125
:101A7000609570958095909500913A0210913B0287
:101A800020913C0230913D026023712382239323F5
:101A90001F910F910C94C20C0F931F9341E050E0E3
:101AA00060E070E004C0440F551F661F771F8A95E1
:101AB000D2F780913A0290913B02A0913C02B09102
:101AC0003D028A019B01082719272A273B27C901C4
:101AD000B8011F910F910C94C20C0F931F930091AA
:101AE0003A0210913B0220913C0230913D02602B62
:101AF000712B822B932B1F910F910C94C20C0F937F
:101B00001F9300913A0210913B0220913C023091C8
:101B10003D0260237123822393231F910F910C9424
:101B2000C20C0F931F9300913A0210913B02209137
:101B30003C0230913D0260277127822793271F9135
:101B40000F910C94C20C08959295907F890F982F55
:101B5000977041E001C0440F9A95EAF78695869503
:101B6000869595E0899FF0011124E250FE4F30E008
:101B700020E070E05191DF011197CB01022E02C0ED
:101B8000969587950A94E2F781708195852784233D
:101B900085278C932F5F3F4F2530310559F70895E6
:101BA0009295907F890F982F977086958695869548
:101BB00025E0829FF0011124E250FE4F50E040E00A
:101BC00080E0219130E0092E02C0369527950A94D5
:101BD000E2F721703327042E01C0220F0A94EAF79E
:101BE000822B4F5F5F4F4530510559F70895BF92E3
:101BF000CF92DF92EF92FF920F931F93CF93DF93D9
:101C00008C01C0903A02D0903B02E0903C02F090F0
:101C10003D0280913E0290913F02A0914002B0911E
:101C20004102C82AD92AEA2AFB2ACFE1D0E0BC2EF9
:101C3000D701C6010C2E04C0B695A7959795879538
:101C40000A94D2F780FD0EC0219788F7B12C8B2D16
:101C5000DF91CF911F910F91FF90EF90DF90CF9088
:101C6000BF900895B8018C2F0E94E814019761F38A
:101C7000EECFCF93DF93EC010E94F70DBE01DF9111
:101C8000CF910C94E8141F93CF93DF93EB019091C5
:101C9000FD01992331F0CB01DF91CF911F910C947D
:101CA000390E882379F0CB010E94F70D182F682F89
:101CB000CE010E94A40DBE01812FDF91CF911F9113
:101CC0000C94E814CB010E94D00D182FF4CF1F9371
:101CD000CF93DF93C091420216E0809143028C13B0
:101CE00004C0DF91CF911F910895D0E01C9FF001B7
:101CF0001D9FF00D1124EC5BFD4F408151816281ED
:101D00007381848195810E94660C2196C770E5CF0E
:101D10004091740250917502609176027091770241
:101D200080917802909179020C94660C1F93CF9366
:101D3000DF9380917902807FA9F4809176028823D5
:101D400089F080914202C0914302609174027091C7
:101D50007502A0917702B0917802D62FD72316E0B2
:101D6000C81304C0DF91CF911F91089590E01097A0
:101D700011F0DF3F19F401968770F2CF189F9001A0
:101D8000199F300D1124F901EC5BFD4F4181471380
:101D9000F2CF40814613EFCF42814111ECCF438116
:101DA00054814A1B5B0B483C510528F7809179020E
:101DB0008F70806180937902F901E75BFD4F80812C
:101DC0008F708061808384E792E00E94E10BDF9155
:101DD000CF911F910C94670EAF92BF92CF92DF927A
:101DE000EF92FF920F931F93CF93DF93CDB7DEB7A0
:101DF00061970FB6F894DEBF0FBECDBF8C0185E0B2
:101E0000F801DE011D9601900D928A95E1F7F80127
:101E1000E28084E7C82E82E0D82E6091770270912C
:101E200078026115710509F45AC1909174022091EC
:101E30007502892F82238F3F09F451C1408151815E
:101E4000A380B480F0907602F501E61BF70BFF202B
:101E500009F4F6C080917902382F307FE83CF10513
:101E600008F0AFC0311179C0FE2C251323C09413A4
:101E700021C0E1101FC08F708061809379020E94A1
:101E8000880EC6010E94E10B80917902F8018583DA
:101E90008F2D61960FB6F894DEBF0FBECDBFDF91D8
:101EA000CF911F910F91FF90EF90DF90CF90BF9057
:101EB000AF900895AB2829F0842F85238F3F09F038
:101EC00027C180E0F82FF170DF2E80FF3CC08091A9
:101ED00042022091430236E0821315C04D875E878F
:101EE0008D859E850E94390E292F22952F702230D4
:101EF000F0F0243018F59F70F1F0F8019581907F93
:101F0000D1F4D12C1EC090E0389FF001399FF00D24
:101F10001124EC5BFD4F6181651306C06081641381
:101F200003C06281E6120FC001968770D5CF9F7003
:101F300011F0882331F3805E883018F3C8010E94C5
:101F4000E10BFD2CA5CFEE2009F4A2CF8091790200
:101F5000816080937902F12C9BCF251306C09413E6
:101F600004C0F801EE2009F487C0C8010E94500C9B
:101F7000882319F1EE2009F180917902803270F006
:101F8000209174023091750238872F831986BB86A1
:101F9000AA868C87CE0107960E94E10B86E0F801A5
:101FA000A4E7B2E001900D928A95E1F70E94960EA7
:101FB0000E94880EFF24F3946BCFC8010E94E10BAE
:101FC000F9CF311113C07A2DB98AA88A6E2D89896B
:101FD0000E94570C84E792E00E94E10B86E0F60134
:101FE00011928A95E9F70E94880EB5CF25130FC08C
:101FF00094130DC0E1100BC0F8018583C8010E9445
:10200000E10B86E0F60111928A95E9F741CFC8010C
:102010000E94500C882389F2EE2079F28091790297
:10202000803208F4BBCF20917402309175023A835C
:1020300029831B82BD82AC828E83CE010196ACCFF8
:10204000E83CF10508F03EC0FE2CEE2009F4B5CFC7
:1020500025132AC0941328C08091790280FD1BC0EB
:10206000982F907FC1F0F8018583903F31F0982F31
:10207000907F905F8F70892B8583C8010E94E10B50
:1020800086E0F801A4E7B2E001900D928A95E1F7AD
:102090000E94880EFDCE86E0F801A4E7B2E0019030
:1020A0000D928A95E1F7F4CEC8010E94500C81117F
:1020B00075CF80917902816080937902C8010E9476
:1020C000E10BE6CE7A2DB98AA88A6E2D89890E9405
:1020D000570C86E0F60111928A95E9F7D9CFEE20E8
:1020E00009F46BCFC8010E94500CF82E882309F424
:1020F00064CF86E0F801A4E7B2E001900D928A95E2
:10210000E1F784E792E00E9412090E94960EC0CF88
:1021100081E08E25D7CE1F93CF93DF93CDB7DEB767
:102120002C970FB6F894DEBF0FBECDBF4F835887F4
:1021300069877A878B879C87CE0107960E94EC0E71
:10214000882369F08A859B85892B39F04F815885D2
:10215000842F85238F3F09F071C016E05FC086E0B1
:10216000FE013796DE01119601900D928A95E1F7F6
:102170008A859B85892B89F38F81988589238F3F59
:1021800061F32091430230E0C901019687709927DD
:10219000409142024817190671F40E942D0C1092CA
:1021A00043021092420286E0E4E7F2E0DF011D9272
:1021B0008A95E9F7D2CF96E0929FD001939FB00D18
:1021C0001124AC5BBD4FFE01319601900D929A95A2
:1021D000E1F7809343020E94670EBFCF819FC00149
:1021E00011248C5B9D4F0E94EC0E8823E9F0E09156
:1021F00042021E9FF0011124EC5BFD4F4081518192
:1022000062817381848195810E94660C8091420273
:1022100090E0019687709927809342028091420254
:10222000909143028913DACF2C960FB6F894DEBF53
:102230000FBECDBFDF91CF911F91089569857A853B
:102240008B859C850E94660C88CF682F8091000149
:10225000909101010C94F81E682F809100019091DB
:1022600001010C94031F80910001909101010C94D5
:102270000E1F80917A0285958595859508958091A8
:102280007A028770089590917A02977081E009F43C
:1022900080E008959091FA0292FB222720F92817F6
:1022A00051F080FB92F99093FA028091F90290919B
:1022B000FA020C94451208958091FA0282FB882755
:1022C00080F991E089270C944A1181E00C944A111D
:1022D00080E00C944A1180919E02089590919E0294
:1022E000892B80939E020895809590919E02982359
:1022F00090939E02089580939E02089510929E02EC
:10230000089590919D02892B80939D020895809558
:1023100090919D02982390939D02089510929D02A2
:10232000089510929C02089580917B02089508956B
:102330000C9497119091FA0292FD08C090917B0243
:10234000981721F080937B020C9498110895809146
:102350007B02882329F010927B0280E00C94981174
:102360000895E0910001F091010180919E02808327
:10237000E0910001F0910101808190919D02892BF3
:102380008083E0910001F0910101808190919C0295
:10239000892B808390917B02992381F0E091000149
:1023A000F09101018081892B8083809100019091BF
:1023B00001010E94641E81110E94A71180910001F9
:1023C000909101010C94101E08950C94E4119091C9
:1023D000FA0292FD10C098E0899F90011124622BAF
:1023E00060937A020E94080D80917A028595859506
:1023F00085950C94E5110C94080D10927A0280E0FA
:102400000C94E51190917A028095892380937A0249
:10241000282F277039F4282F082E000C330B921721
:10242000130621F49091FA0292FF07C085958595D5
:1024300085950E94290D0C94FD1108956FEF7FEF93
:1024400090E080E00C94752790E080E00E94512796
:1024500021E0893E9E4F09F020E0822F089582E01E
:1024600090E00C94492783E090E00C944927CF93A7
:1024700084E090E00E944927C82F82E290E00E9409
:102480004927982F8C2FCF910895CF93C92F682F6C
:1024900084E090E00E9457276C2F82E290E0CF9179
:1024A0000C945727AB01BC018FE090E00C94692796
:1024B000AB01BC0183E190E00C94692760E070E01F
:1024C000CB010C94581260E070E0CB010E945212D4
:1024D0000C945E1269EE7EEF90E080E00E9475271A
:1024E00060E082E090E00E94572760E083E090E0A7
:1024F0000E94572710923E0210923F021092400213
:102500001092410260E084E090E00E94572760E072
:1025100082E290E00E94572760E085E090E00E9410
:10252000572760E086E090E00E9457276FEF87E032
:1025300090E00E94572740E050E0BA0188E090E028
:102540000E94692760E08DE090E00E94572740E0FC
:1025500050E0BA0188E190E00E94692760E087E1DD
:1025600090E00E94572740E050E0BA018CE190E0F3
:102570000E94692770E060E080E290E00E94752789
:1025800040E050E0BA0188E190E00E9469270C9495
:1025900063120C946A12682F8EE090E00C94572717
:1025A0000E94B41F6093B4027093B5028093B60288
:1025B0009093B7026093B0027093B1028093B2021D
:1025C0009093B30208950E94B41F6093B402709375
:1025D000B5028093B6029093B7026093AC027093F9
:1025E000AD028093AE029093AF02089585B78068E4
:1025F00085BF85B7806885BF0895089508950C94B8
:10260000FD1208950C9401130E94F61286EC95E1D8
:102610000E9417200E94FE120C94FF1281E0089580
:102620000C940E13089508950E9412130C94131322
:102630000E949F1F0E942D030E9495180E94061A57
:102640000C9402137F928F929F92AF92BF92CF927F
:10265000DF92EF92FF920F931F93CF93DF93CDB74B
:10266000DEB72A970FB6F894DEBF0FBECDBF0E942B
:10267000A00381110E94D01220EAE22E22E0F22E65
:1026800010E000E0812F0E947E044C01F701A08041
:10269000B180A816B906D1F18091B80281FD0E94DF
:1026A0008704A824B924712CCC24C394D12CC5014F
:1026B0008C219D21892B21F10E9410138823B1F0D8
:1026C0007E821F8321E0C4018C219D21892B09F486
:1026D00020E028870E94A81F8160782F9A87898729
:1026E0004E815F8168858A850E94D408F7018081C8
:1026F00091818C259D25918380830F5F0C30F8F4A8
:102700007394CC0CDD1CF0E17F12D1CF1F5F82E00F
:10271000E80EF11C163009F0B5CF011110C08FEF93
:1027200089838A831B820E94A81F8160782F9D83E2
:102730008C8349815A816B818D810E94D4080E94CB
:10274000F3190E94151A81110E94E3120E946A1760
:102750000E94011E90919F028917C9F00E94011EDC
:1027600080939F022A960FB6F894DEBF0FBECDBFAE
:10277000DF91CF911F910F91FF90EF90DF90CF905D
:10278000BF90AF909F908F907F900C94CC082A962A
:102790000FB6F894DEBF0FBECDBFDF91CF911F9172
:1027A0000F91FF90EF90DF90CF90BF90AF909F90F0
:1027B0008F907F900895CF93DF930E94EC14EC01EB
:1027C000811521E5920708F042C0811530E5930795
:1027D00008F09DC0883E910530F5803E910508F0D7
:1027E00092C0883A910588F4853A910508F084C032
:1027F0008130910509F487C0009709F484C00497DB
:1028000008F081C0D0E0C0E07EC08F3B9105D0F7DA
:10281000C85AD0E0CC0FDD1FCA5BDE4F0990D881CB
:10282000C02DD46470C08115904250F4C11581E070
:10283000D80708F068C0CD3ED10520F3D06563C04D
:10284000C11590E4D907F0F2DF70D06A5CC0811541
:1028500025E5920700F5811534E5930708F08BC054
:10286000811543E5940708F073C0C11582E5D807C8
:1028700008F469C0CE018370992721E030E002C0DE
:10288000220F331F8A95E2F7C695C69580E2C89F4E
:10289000E001112454C0C11599E5D907A8F4C11568
:1028A00028E5D20708F06CC0C11536E5D30708F05B
:1028B000A9CF8C2F0E948315C82FD0E0DC2FCC2706
:1028C000CC27DF71D0621FC0C1154AE5D40708F4D8
:1028D0005CC0CE0190568115904208F093CF8D2FA9
:1028E0008F710E94831590E0982F882788279F7109
:1028F0009C012C2BE901E6CFC55AD0E0CC58DE4F25
:10290000C881D0E0D064CE01DF91CF910895E4E09A
:1029100096958795EA95E1F783702C2F2695269555
:10292000237040E2249F90011124382B8C2F837058
:10293000C1E0D0E002C0CC0FDD1F8A95E2F7C22BC8
:10294000D32BDC68E0CFDC2FCC27C16FD06ADBCF84
:102950008370992721E030E002C0220F331F8A954F
:10296000E2F7C695C69590E2C99FE0011124C22BFB
:10297000D32BDA68C8CFD82FCC27C46FD06AC3CF87
:10298000DC2FCC27C06FD06ABECF8C2F8F700E94F7
:10299000831534E0D695C7953A95E1F7CF709C2F13
:1029A000EC01D069B0CFE72FF0E096E0899FE00D11
:1029B000F11D112484E0EE0FFF1F8A95E1F7E60F69
:1029C000F11DEE0FFF1FE853FF4F8591949108957D
:1029D0000E94D3140C94DB1382389105B1F1B0F44A
:1029E0008133910509F475C048F48932910509F4E1
:1029F00069C08A32910509F473C008958533910541
:102A000009F459C08933910501F10895833E910578
:102A1000A9F138F4803E9105F9F0823E910549F123
:102A20000895863E9105A9F1873E9105C9F1843E3E
:102A3000910519F52091FA0221FF1FC08091F9023A
:102A400084FD14C087EE90E008952091F902237070
:102A5000A1F080EE90E008952091F90220FD47C09A
:102A60003091FA0230FF09C024FF44C090E080E0BA
:102A700004C02091F90222FDF7CF08952091F902B8
:102A800022FD3BC03091FA0230FDE3CF24FFF5CFA9
:102A9000EDCF2091F90223FFF0CF24FDE7CFD2CF75
:102AA0002091F90223FD2CC03091FA0231FFEECFC4
:102AB00084EE90E008952091F90225FFDECF89E2AF
:102AC00090E008952091F90225FFD7CF85E390E0AB
:102AD00008952091F90226FFD0CF8AE290E0089570
:102AE0002091F90226FFC9CF81E390E0089589E3A0
:102AF00090E0089583EE90E0089582EE90E00895CE
:102B000086EE90E008959091F90292FF06C0282F7A
:102B100028712830F9F4877F846093FF06C0282F3E
:102B200028712831F1F4877E84612091FA0220FF18
:102B300006C0382F38713830D9F4877F816021FF83
:102B400006C0282F28712831D1F4877E816194FD39
:102B5000877E0895282F24712430F9F68B7F8860B2
:102B6000DCCF282F2471243101F78B7E8861DDCFE3
:102B7000382F3171313019F78E7F8860E0CF282FE0
:102B80002171213121F78E7E8861E1CF80E00895A7
:102B90000C94FB020E942412811102C00E94C912EF
:102BA0000E942F128093B8020E9437129093FA026B
:102BB0008093F9020E94C8150E943312682F70E0BA
:102BC00090E080E00E94860C60913A0270913B0296
:102BD00080913C0290913D020C94C00C0E94201FF9
:102BE0000E9488210E94A1210E94B3210E941413F7
:102BF000FBCF8091BF0280FF12C06091070185E08A
:102C0000689FB00111247595679575956795603833
:102C10007105A8F561157105A1F1862F089581FF51
:102C200009C06091070185E0689FB0011124759586
:102C30006795EDCF6091070182FD0AC08091BE02C9
:102C40008823D1F09091060160910701891728F03F
:102C500085E0689FB0011124DACF869FB00111246E
:102C600085E0869F9001879F300D1124692F70E0C9
:102C7000C9010E94F326CBCF65E070E0CECF8FE78D
:102C8000089581E008958091BF0280FF0CC060919B
:102C9000030170E0759567957595679561157105E8
:102CA00049F1862F089581FF06C06091030170E00D
:102CB00075956795F3CF6091030182FD0BC09091EC
:102CC000BD029923A1F06091020180910301961742
:102CD00038F0682F70E06038710500F38FE70895D1
:102CE000899FC001112470E00E94F326F4CF61E0B7
:102CF00070E0D7CF81E008958D3E31F40E94F91540
:102D000081958093C30208958E3E19F40E94F915AF
:102D1000F8CF8F3E31F40E94F91581958093C2025D
:102D20000895803F19F40E94F915F8CF893F29F4DE
:102D30000E9443168093C40208958A3F21F40E94A2
:102D400043168195F7CF8B3F31F40E94431681954E
:102D50008093C50208958C3F19F40E944316F8CF62
:102D60009FE0980F983070F4815F990B21E030E07C
:102D700001C0220F8A95EAF78091C102822B8093CD
:102D8000C10208958D3F31F48091BF02816080932C
:102D9000BF0208958E3F21F48091BF028260F7CF79
:102DA0008F3FB9F78091BF028460F1CF4091C2029A
:102DB0008D3E59F48091C30287FF0DC01092C3026B
:102DC00041110BC01092BE0208C08E3E81F480916A
:102DD000C30218169CF3442381F08091C4029091A1
:102DE000C502892B09F05AC01092BD0208958F3E8A
:102DF00049F447FFF0CF1092C2028091C3028111C3
:102E0000ECCFE0CF803F19F41416ACF3E4CF9091EF
:102E1000C402893F29F41916F4F61092C402DBCFDC
:102E20008A3F19F497FFD7CFF8CF9091C5028B3F17
:102E300029F497FFD0CF1092C502CDCF8C3F19F463
:102E40001916CCF3C8CF9FE0980F983090F4815FAB
:102E5000990B21E030E0B90102C0660F771F8A9517
:102E6000E2F7CB0180959091C10289238093C10242
:102E7000B2CF8D3F31F48091BF028E7F8093BF022D
:102E8000AACF8E3F21F48091BF028D7FF7CF8F3F75
:102E900009F0A1CF8091BF028B7FF0CF08950E94EF
:102EA000A81F9C019091C2028091C302982B21F02F
:102EB0003093BC022093BB029091C4028091C50262
:102EC000982B21F03093BA022093B90280EC92E063
:102ED0000C942A1EEF92FF920F931F93CF93DF93D0
:102EE00000D000D000D0CDB7DEB786E0E0ECF2E055
:102EF000DE01119601900D928A95E1F7E090C202F1
:102F0000F090C3020091C4021091C5021092C20257
:102F10001092C3021092C4021092C5028E2D8F2906
:102F200091F08091BB029091BC020E94C01FAC0145
:102F30009091BE02992309F43FC080910801841743
:102F4000150608F447C0802F812B91F08091B902BB
:102F50009091BA020E94C01FAC019091BD029923CA
:102F600009F477C0809104018417150608F47FC026
:102F70008091C2029091C302892B9091C402892B47
:102F80009091C502892B11F00E944F1786E0FE0137
:102F90003196A0ECB2E001900D928A95E1F7269669
:102FA0000FB6F894DEBF0FBECDBFDF91CF911F915A
:102FB0000F91FF90EF900895209109018AE0289FDA
:102FC000900111242417350708F0BDCF9F5F90931F
:102FD000BE0202C09F3FD1F7EE2059F00E94F915C2
:102FE0009FEF1E140CF491E0899F802D1124809393
:102FF000C202FF2059F00E94F9159FEF1F140CF434
:1030000091E0899F802D11248093C3023091C202E8
:10301000332309F498CF2091C302222309F493CFDC
:1030200045EB3403C0011124992359F09093C20257
:1030300045EB240390011124332339F03093C3026C
:1030400082CF81E08093C202F3CF81E08093C302FC
:103050007ACF209105018AE0289F9001112424173E
:10306000350708F085CF9F5F9093BD0202C09F3F58
:10307000D1F7002359F00E9443169FEF10160CF46D
:1030800091E0899F802D11248093C402112359F06F
:103090000E9443169FEF11160CF491E0899F802D3A
:1030A00011248093C5023091C402332309F460CF08
:1030B0002091C502222309F45BCF45EB3403C00104
:1030C0001124992359F09093C40245EB24039001F5
:1030D0001124332339F03093C5024ACF81E0809325
:1030E000C402F3CF81E08093C50242CF86E0E0ECDA
:1030F000F2E0DF011D928A95E9F71092BE0210926C
:10310000BD021092BF02089586E090E00C9449271A
:10311000682F86E090E00C945727EBEFF2E0808177
:103120008470896180830C9488180E942412811114
:1031300004C00E94C9120E948D180E9484188093B6
:10314000FB02803220F0877088618093FB029091AF
:10315000FB02892F817090FF04C0892F8695869588
:1031600086950C9495198091FB02982F96959695CB
:103170009695933040F49F5F990F990F990F877040
:10318000892B8093FB028091FB0281608093FB027C
:103190000E9488188091FB028695869586950C94EE
:1031A00095198091FB02982F987F79F08850809331
:1031B000FB02887F91E009F490E08091FB0290FB94
:1031C00080F98093FB020E9488188091FB0286950B
:1031D000869586950C9495198091FB0280FD13C00D
:1031E00081608093FB02813019F489E08093FB02B7
:1031F0008091FB020E9488188091FB02869586953B
:1032000086950C94951908958091FB0280FF08C063
:103210008E7F8093FB020E94881880E00C949519A1
:1032200008958091FB0280FD0C9404190C94EC1815
:103230009091FB02892F8695869586958F5F8F7179
:1032400097708430D8F4880F880F880F892B80936B
:10325000FB028091FB02887F91E009F490E080916D
:10326000FB0290FB80F98093FB020E9488188091FA
:10327000FB028695869586950C9495199093FB0292
:10328000E8CF843008F083E09091FB029770282FFC
:10329000220F220F220F922B9093FB02987F21E0A6
:1032A00009F420E09091FB0220FB90F99093FB023F
:1032B0000C9495190E9441198091FB020C94881876
:1032C0009C01FB018281882349F12E3BFCE53F07ED
:1032D000C9F040F42C3BECE53E0769F02D3B3C4542
:1032E00079F00895203C9CE5390791F070F0213C7D
:1032F0003C4589F0089583E00E945A1980E00895C2
:1033000080E0FACF0E94D118F9CF0E94B318F6CF0F
:103310000E941119F3CF0E941819F0CF81E008958F
:10332000269A2E9808952E980895CF92DF92EF92C4
:10333000FF92CF93C82F843040F5811127C0809130
:1033400080008F7D809380000E9493192C2F30E0A5
:10335000AFEFBFEF0E942F2723E030E040E050E0C6
:103360000E940727C9012C3764E13607A8F469E0F9
:1033700070E00E94DF2670938B0060938A00CF91EB
:10338000FF90EF90DF90CF900895C3E08091800090
:10339000806280938000DACF2A50374D4F4F5F4FC5
:1033A000942F832F722F662725EF38E241E050E0FB
:1033B0000E94072769017A01CA01B9010E94CF263C
:1033C0009B01AC01C701B6010E94CF26672F782F61
:1033D000892F99276115710521E08207910559F61A
:1033E0006FEF7FEFC8CF08950E94901982E280931B
:1033F000800089E1809381008FEF9FEF9093870099
:10340000809386000C9495180C9483068098889A73
:103410008198899A8FB18170799905C090E0892B44
:103420008093C802089592E0FACFE091C802EE0FAF
:10343000EE0FE093C8024FB1842F81704FB141FB72
:10344000222720F941FF02C022E030E0822BE82B46
:10345000E093C802EF70F0E0E958FE4F8081909150
:10346000C702890F8093C70220E0823054F0809118
:10347000C6028F5F8093C60260E080E00E94041A5B
:1034800021E08091C7028F3F54F48091C6028150A1
:103490008093C60261E080E00E94041A21E08091DE
:1034A000C702082E000C990B62E070E00E94F32620
:1034B0008093C702822F0895CF93DF93EC0197FF8B
:1034C0000CC0FB018281882341F00E94871ACE0143
:1034D0009F770E94E11A0E94C21A81E0DF91CF918A
:1034E00008958CE090E00E94492790E0B0E0A0E0D1
:1034F0008093FC029093FD02A093FE02B093FF0222
:1035000008956091FC028CE090E00C9457270E9493
:103510000D1E86958170809301039091FC0291307D
:1035200029F4882319F089E30E94AB090E946B11EA
:10353000809300030E947E118091FC02813089F00B
:10354000882359F0823091F08430B9F08FE39CE900
:103550000197F1F700C00000089582EE0E9417095C
:10356000F5CF88E193E00E940507F0CF82EE0E943C
:10357000170987E50E94AB09E9CF86EE0E94AB09E7
:1035800088E1F8CF8091FC02813071F0882341F00E
:10359000823031F0843099F0809100030C947B11DB
:1035A00082EE0E946509F8CF8CE20E94AB098091FF
:1035B0000103882389F389E30E94AB09EDCF88E2F8
:1035C000FBCF0F931F93CF93DF938C01CCE0D0E020
:1035D000C8010C2E02C0969587950A94E2F78F7069
:1035E0000E94AD082497CC3F8FEFD80789F7DF9171
:1035F000CF911F910F9108950F931F93CF93DF9356
:10360000EC018B01FB018281882361F00E946B1128
:10361000CE01825E9C458530910520F48093FC02AA
:103620000E94811AB801CE01DF91CF911F910F91B5
:103630000C945C1A0F931F93CF93DF93C42FD22F58
:10364000FC0182818823C9F04093CB020E94A81F0D
:103650009093CA028093C90280E28C0F883008F0F0
:1036600050C0C77081E001C0880FCA95EAF7DF91AA
:10367000CF911F910F910C94B3091091CB021413A9
:1036800035C08091C9029091CA020E94C01F883C37
:10369000910560F5C0E2CD0F1D17B9F080E2810FF2
:1036A000883040F4177081E001C0880F1A95EAF75E
:1036B0000E94BA09C83048F481E09D2F977001C07C
:1036C000880F9A95EAF70E94B309802F0E94AB09F0
:1036D000C830B8F4D77081E001C0880FDA95EAF7F6
:1036E000DF91CF911F910F910C94BA0980E28C0F5A
:1036F000883038F4C77081E001C0880FCA95EAF7B6
:10370000EFCFDF91CF911F910F9108950F939C01FF
:10371000CB01243F4CE5340759F1A8F4293DFCE5E1
:103720003F0701F12A3D4CE53407D1F1283D3C45E6
:1037300091F406E221EE41EE68ED7CE50E941A1B51
:1037400080E00F910895263FFCE53F07E9F0B0F0D7
:10375000273F3C45F9F0FC018281882339F1109222
:10376000CB02EFCF07E225EE45EE69ED7CE5E6CF33
:1037700006E221EE40EE64EF7CE5E0CF07E225EEC5
:1037800044EE65EF7CE5DACF06E221EE42EE66EF2D
:103790007CE5D4CF07E225EE46EE67EF7CE5CECFA1
:1037A00008E221E045EE6AED7CE5C8CF81E0C9CFB3
:1037B000CF93DF93EC01FB018281882309F419C1C7
:1037C000C230FCE5DF07C0F1C6319CE5D90730F017
:1037D0009E012B5F3C452930310570F50E94371260
:1037E0009093FA028093F902C031ECE5DE0709F408
:1037F000CFC008F05BC0C8308CE5D80709F4B6C06C
:1038000088F5C430ECE5DE0709F4A8C0C0F4C23086
:103810008CE5D80709F49CC08091F9028260C3301E
:10382000DC4509F498C08091F9029091FA020E9457
:1038300045120E942D0C80E0DF91CF910895809178
:10384000F9028061C630ECE5DE0709F484C080919E
:10385000F9028860C730DC4508F47DC08091F90228
:10386000806279C0CC308CE5D80709F489C070F447
:103870008091F9028C60CA30ECE5DE0709F46BC078
:1038800008F478C08091F9028E7F65C0CE308CE557
:10389000D80709F479C08091F9028B7FCF30DC45DD
:1038A00008F459C08091F9028F7E55C0CC3FECE5F9
:1038B000DE0709F457C030F5C3318CE5D80709F4A9
:1038C0006FC078F4C131ECE5DE0709F465C0C231A0
:1038D000DC4509F0A8CF0E942D0C8091F9028F776A
:1038E0003AC0C5318CE5D80709F462C008F476C047
:1038F0008091FA028160CB3FDC4509F094CF809340
:10390000FA0291CFC115FDE5DF0709F44DC088F437
:103910008091FA028D7FCE3F9CE5D90781F380919B
:10392000FA028E7FCF3FDC4550F38091FA0283602C
:10393000E6CFC230FDE5DF0709F459C008F444C002
:1039400080E0C330DD4509F06ECF0E94CB126BCF13
:103950008091F90281608093F90265CF8091F9022C
:103960008460F9CF8091FA028260C9CF8091F90218
:103970008064F1CF0E942D0C8091F9028068EBCF1A
:103980008091F9028D7FE7CF8091F902877FE3CFA5
:103990008091F9028F7DDFCF8091F9028F7BDBCFA1
:1039A0008091F902837FD7CF8091FA028C7FA7CFD5
:1039B0008091F90282FB992790F921E0922790FBF0
:1039C00082F990FB83F9C7CF8091FA02982F9095E6
:1039D00091708E7F892B90FB81F991CF0E942D0CE5
:1039E0009091F902892F97FB87F98058B4CF81E035
:1039F000ACCF81E021CFCF93DF93EB0186319C45A3
:103A000011F50E946B119A81992399F08A7A91E0BD
:103A100009F490E09093CC02811109C089E20E94E0
:103A200025110E94B11180E0DF91CF91089585E3C7
:103A3000F6CF8091CC02811104C089E20E942C1142
:103A4000F0CF85E3FBCF81E0EFCF1092B90082E1A8
:103A50008093B80008959F92AF92BF92CF92DF9269
:103A6000EF92FF920F931F93CF93DF93B82EEB014A
:103A70000E94A81F6C01EE24E394F12CC431D105FF
:103A800060F025E0E22EF12CCF3FDC0731F0CE01D3
:103A900064E170E00E94DF267B0184EAA82E94E8AE
:103AA000992E1092BC00A092BC000E94A81F8C010D
:103AB0008091BC0087FF0DC08091B900887F88305D
:103AC00039F18091B900887F803111F10FEF1FEF3C
:103AD00009C00E94A81F801B910B8E159F0540F303
:103AE0000EEF1FEFCF3FDC07E1F2C6010E94C01FBF
:103AF0008C179D07B0F2C801DF91CF911F910F91F4
:103B0000FF90EF90DF90CF90BF90AF909F9008957F
:103B1000B092BB009092BC000E94A81F8C018091C3
:103B2000BC0087FF0AC08091B900887F883111F0FE
:103B3000803461F610E000E0DECF0E94A81F801BF9
:103B4000910B8E159F0558F3CBCF0F931F93CF93F7
:103B5000DF93EB018093BB0084E88093BC000E945C
:103B6000A81F8C018091BC0087FF11C02091B90073
:103B7000287F81E090E0283211F490E080E0919578
:103B800081959109DF91CF911F910F910895CF3FBA
:103B9000DC0741F30E94A81F801B910B8C179D0727
:103BA00008F38EEF9FEFEECF0F931F93CF93DF932A
:103BB000EC0184E88093BC000E94A81F8C018091D6
:103BC000BC0087FF08C08091BB0090E0DF91CF91DF
:103BD0001F910F910895CF3FDC0789F30E94A81F22
:103BE000801B910B8C179D0750F38EEF9FEFEECF4C
:103BF00084E98093BC0008959093D2028093D1020F
:103C00000895E091D102F091D202309721F0019015
:103C1000F081E02D099480E008950E94011E08952E
:103C2000E091D102F091D202309799F020911401E5
:103C3000222359F02091F90227FF07C0DC012C91C3
:103C400011962C93119725E02C930280F381E02D9F
:103C500009940895E091D102F091D202309739F0A1
:103C600022E0DC012C930480F581E02D0994089575
:103C70002091CF023091D0022817390771F090932C
:103C8000D0028093CF02E091D102F091D20230971E
:103C900021F00680F781E02D099408952091CD024E
:103CA0003091CE022817390771F09093CE0280939D
:103CB000CD02E091D102F091D202309721F0008440
:103CC000F185E02D09940895FC013296809114014C
:103CD000882321F08091F9029EE187FF96E080E041
:103CE000915008F4089521912223D1F38F5FF8CFEA
:103CF000662301F1209114012223F1F02091F902B1
:103D000027FF1AC0462F4695469546954E3190F4AA
:103D1000677021E030E002C0220F331F6A95E2F79E
:103D2000840F911DFC01828190E02823392381E0DA
:103D3000232B69F480E00895FC01329608962191C6
:103D4000261721F0E817F907D1F7F4CF81E008959D
:103D50009C01FC0132969FEF80E04191461751F0A3
:103D60009F3F19F4411101C0982F8F5F8630A9F74A
:103D70009F3F09F40895290F311D97FD3A95F901E8
:103D800062830895FC01329608962191261303C0A0
:103D9000DF0111971C92E817F907B9F70895E62F8C
:103DA000E695E695E695EE3168F4E80FF92FF11DFA
:103DB000677021E030E001C0220F6A95EAF7828146
:103DC000822B82830895E62FE695E695E695EE31FF
:103DD00070F4E80FF92FF11D677021E030E001C0A9
:103DE000220F6A95EAF7209582812823228308957D
:103DF00020911401222329F02091F90227FD0C942F
:103E0000CF1E0C94A81E20911401222329F020918A
:103E1000F90227FD0C94E31E0C94C21EFC0132969D
:103E200080911401882351F08091F90287FF06C028
:103E30008EE1DF011D928A95E9F7089586E0F9CFBA
:103E4000089508950C94211F80910A03843061F134
:103E50000E94221F80E00E94951980E00E94CC08F9
:103E60001092D30288E190E020E40FB6F894A89570
:103E7000809360000FBE2093600083B7817F8460D1
:103E800083BF83B7816083BF7894889583B78E7F23
:103E900083BF0FB6F894A8958091600088618093E5
:103EA0006000109260000FBE08950895CF930E94A5
:103EB00045030E94A0030E94551FC0E08C2F0E9462
:103EC0007E04892B31F4CF5FC630C1F780E0CF91FB
:103ED000089581E0FCCF08950C946B1F0E942D0C77
:103EE0000E9495180E94011E0E94CC080C946C1F21
:103EF0001F921FB61F9211248F939F93AF93BF936E
:103F00008091D302811113C0809102039091030329
:103F1000A0910403B09105034196A11DB11D8093AA
:103F2000020390930303A0930403B0930503BF918E
:103F3000AF919F918F911F901FBE1F90189582E0A7
:103F400084BD93E095BD9AEF97BD80936E00089570
:103F50002FB7F8948091020390910303A09104037A
:103F6000B09105032FBF08952FB7F8946091020315
:103F70007091030380910403909105032FBF08956E
:103F80009C014FB7F8948091020390910303A09194
:103F90000403B09105034FBF821B930B08957894DF
:103FA0001F921FB61F9211248F939F93AF93BF93BD
:103FB0008091020390910303A0910403B091050343
:103FC0000196A11DB11D8093020390930303A0935A
:103FD0000403B0930503BF91AF919F918F911F9000
:103FE0001FBE1F90189581E08093E00080E28093CF
:103FF000D8001092C9008FE19EE40197F1F700C04C
:10400000000087E090EBDC0180931303909314038E
:10401000A0931503B093160388E19CE00FB6F894C3
:10402000A895809360000FBE90936000FFCF90939F
:1040300089018093880108958091F70208959091F5
:104040000A03943031F58093D4027093D6026093C2
:10405000D50282E08093E9008FEF9091E8008150D3
:1040600095FD06C095ED9A95F1F700008111F5CF09
:104070008091E80085FF0DC050E040E063E070E013
:1040800084ED92E00E943E228091E8008E7780933A
:10409000E8000895BC0184E00C941F20BC0183E07B
:1040A0000C941F209C0182E08093E9009FEF809197
:1040B000E800915085FD06C085ED8A95F1F7000076
:1040C0009111F5CF8091E80085FF0CC050E040E0F1
:1040D00066E070E0C9010E943E228091E8008E7780
:1040E0008093E8000895CF93DF93EC018091140151
:1040F0008823B1F18091F90287FF32C060E282E04B
:104100008093E9008FEF9091E800815095FD06C003
:1041100095ED9A95F1F700008111F5CF8091E800B7
:1041200085FF1BC08091140170E050E040E08111D8
:1041300004C050E040E068E070E0CE010E943E2202
:104140008091E8008E778093E80080E2FE01A7ED81
:10415000B2E001900D928A95E1F7DF91CF91089539
:1041600068E081E0CDCF80910903811109C00E94F0
:10417000CE230E942B248091E20084608093E20091
:10418000089510920903089508950895089542E04E
:1041900061EC81E00E944A2342E261EC82E00C94EF
:1041A0004A2380910C03833009F45FC030F48130DE
:1041B000C1F1823009F49BC008958A3009F487C0A8
:1041C0008B3009F46DC0893009F04EC080910B032B
:1041D000813209F049C080910F039091100302973A
:1041E00008F042C08091E800877F8093E8008091CA
:1041F000E80082FF35C09091F3008091F2000297B1
:1042000029F48091F1008B7F813021F48091F100BD
:104210008093F7028091E8008B778093E8000C94FC
:104220007E2380910B03813AF9F48091E800877F27
:104230008093E80080910F0390911003892B61F423
:1042400060E287ED92E070E00E948D228091E800AC
:104250008B778093E800089560E090E080E0F3CFF2
:1042600080910A038111C3CF089580910B03813A95
:10427000D9F780910F0390911003892BA9F78091B2
:10428000E800877F8093E8008091E80080FFFCCF02
:10429000809114018093F1008091E8008E77BDCF6A
:1042A00080910B03813201F780910F0390911003ED
:1042B000892BD1F68091E800877F8093E8000E94E7
:1042C0007E2380910D03809314010C942D0C80911A
:1042D0000B03813249F68091E800877F8093E800E4
:1042E0000E947E2380910E038093F80208958091AE
:1042F0000B03813A09F0B8CF8091E800877F809363
:10430000E8008091E80080FFFCCF8091F802C2CFE6
:1043100084B7877F84BF0FB6F894A895809160001A
:10432000886180936000109260000FBE80E890E08A
:104330000FB6F89480936100909361000FBE0C94C7
:1043400004130E94CE230E942B24E2EEF0E0808131
:104350008460808378940E94B4260E9418138AE0B7
:1043600091E00C94FC1D80910A03853031F480911A
:104370000A03853021F00E946E1F0C9422130E94C4
:10438000241F80910803882391F30E94561F8823DD
:1043900071F30E9428220E942D0CE9CF0C94D021A9
:1043A000292F33272330310519F168F421303105E5
:1043B00009F444C02230310509F445C090E080E0A2
:1043C00030E020E025C02132310549F122323105AB
:1043D000A9F780E490E027EE34E061157105C1F0A3
:1043E00086EB90E021E334E06130710589F0E6CF9F
:1043F00099278130910581F0009729F00297F1F615
:10440000E8EBF3E002C0E0EEF3E0849190E09F017E
:10441000FA01318320830895E0EDF3E0F6CF89E0DF
:1044200090E026EF33E06115710591F389E090E0AB
:104430002FE034E06130710559F3C0CF82E190E0A4
:104440002FE134E0E5CF8BE390E024EE33E0E0CFE2
:1044500080E189BD82E189BD09B400FEFDCF809174
:10446000D8008F7D8093D8008091E0008260809397
:10447000E0008091E00081FDFCCF0895AF92BF92F3
:10448000CF92DF92FF920F931F93CF93DF936C0134
:10449000EB018A010E949D23F82E811123C0011592
:1044A000110539F0F80180819181C81BD90BC80E24
:1044B000D91EB12CA12C2097A9F08091E80085FD90
:1044C00022C08091E8008E778093E80001151105E5
:1044D000A1F0F80180819181A80EB91EB182A0825D
:1044E00085E0F82E8F2DDF91CF911F910F91FF90D6
:1044F000DF90CF90BF90AF9008950E949D238823B6
:10450000D1F2F82EEFCFF60181916F018093F10087
:104510002197FFEFAF1ABF0ACECFFC0180911103A4
:104520009091120386179707A0F06115710529F481
:104530009091E8009E779093E80090E061157105F6
:1045400051F4911108C08091E80082FF34C080E0EE
:104550000895BC01F2CF80910A038823C1F1853010
:10456000C1F18091E80083FD30C08091E80082FDB8
:10457000EACF8091E80080FFE1CF8091F3002091A5
:10458000F200382F6115710519F02830310558F007
:1045900091E02830310509F090E02091E8002E7775
:1045A0002093E800CBCF81918093F1006150710995
:1045B0002F5F3F4FE7CF80910A03882341F085307A
:1045C00041F08091E80083FFBECF81E0089582E052
:1045D000089583E00895FC018091110390911203E6
:1045E00086179707A0F06115710529F48091E800FE
:1045F0008E778093E80090E06115710551F4911178
:1046000008C08091E80082FF35C080E00895BC01B9
:10461000F2CF80910A038823C9F18530C9F18091D6
:10462000E80083FD31C08091E80082FDEACF8091EF
:10463000E80080FFE1CF8091F3002091F200382F55
:104640006115710519F02830310558F091E02830D6
:10465000310509F090E08091E8008E778093E800C2
:10466000CBCF84918093F1003196615071092F5F17
:104670003F4FE6CF80910A03882341F0853041F017
:104680008091E80083FFBDCF81E0089582E0089526
:1046900083E00895982F973028F08F708093E90079
:1046A00081E008959093E900242F762F50E0981729
:1046B00031F07091EC002091ED005091F00021FD5F
:1046C00002C09F5FE8CF3091EB003E7F3093EB005C
:1046D0003091ED003D7F3093ED003091EB00316083
:1046E0003093EB007093EC002093ED005093F000BA
:1046F0002091EE0027FDE5CF80E0089580910B0327
:1047000087FF13C08091E80082FF06C08091E80017
:104710008B778093E80004C080910A038111F2CF67
:10472000089580910A038823D9F38091E80080FFDF
:10473000F8CF8091E8008E77ECCF2091E4003091A3
:10474000E50095E6A9012091EC00822F817020FF01
:1047500006C08091E80080FF06C080E008952091A7
:10476000E80022FD1AC080910A03882389F0853071
:1047700089F08091EB0085FD0FC02091E40030911D
:10478000E50042175307F9F29150E1F684E00895ED
:1047900082E0089583E0089581E008950E943C241A
:1047A0000E944424E0EEF0E0808181608083E8EDA7
:1047B000F0E080818F77808319BCA7EDB0E08C9109
:1047C0008E7F8C9380818F7E808310920903089561
:1047D0000F931F93CF93DF930E943C240E944424A5
:1047E000C8EDD0E088818F7788838881806888834E
:1047F00088818F7D888319BC10920A03109206036A
:10480000109208031092070300EE10E0F801808177
:104810008B7F808388818160888342E060E080E0D4
:104820000E944A23E1EEF0E080818E7F8083E2EEF9
:10483000F0E0808181608083808188608083F801DE
:1048400080818E7F8083888180618883DF91CF9192
:104850001F910F910895E8EDF0E080818F7E8083B5
:10486000E7EDF0E080818160808384E082BF81E0B9
:10487000809309030C94E823E8EDF0E080818E7FBB
:1048800080831092E20008951092DA001092E10005
:1048900008951F920F920FB60F9211242F933F93FA
:1048A0004F935F936F937F938F939F93AF93BF9338
:1048B000EF93FF938091E10082FF0BC08091E200B3
:1048C00082FF07C08091E1008B7F8093E1000E940E
:1048D000B3268091DA0080FF19C08091D80080FF54
:1048E00015C08091DA008E7F8093DA008091D90024
:1048F00080FF96C080E189BD82E189BD09B400FED8
:10490000FDCF81E080930A030E94B3208091E100F3
:1049100080FF19C08091E20080FF15C08091E20005
:104920008E7F8093E2008091E20080618093E200BC
:104930008091D80080628093D80019BC85E0809374
:104940000A030E94C5208091E10084FF2BC0809162
:10495000E20084FF27C080E189BD82E189BD89B57D
:10496000982F917080FFFBCF8091D8008F7D80932E
:10497000D8008091E1008F7E8093E1008091E20079
:104980008F7E8093E2008091E20081608093E2005C
:1049900080910603882309F449C084E080930A03C8
:1049A0000E94C6208091E10083FF29C08091E2002F
:1049B00083FF25C08091E100877F8093E10082E042
:1049C00080930A03109206038091E1008E7F80930A
:1049D000E1008091E2008E7F8093E2008091E2000E
:1049E00080618093E20042E060E080E00E944A2320
:1049F0008091F00088608093F0000E94C420FF91B5
:104A0000EF91BF91AF919F918F917F916F915F9146
:104A10004F913F912F910F900FBE0F901F901895BF
:104A200019BC10920A030E94C12070CF8091E3004C
:104A300087FD93E090930A03B3CF1F920F920FB6B6
:104A40000F9211242F933F934F935F936F937F9314
:104A50008F939F93AF93BF93CF93DF93EF93FF9386
:104A6000D091E900DF708091EC00C82FC17080FD0B
:104A7000C0E81092E9008091F000877F8093F000F9
:104A800078940E9461251092E9008091F00088607E
:104A90008093F000CD2BCF70C093E900FF91EF9190
:104AA000DF91CF91BF91AF919F918F917F916F9146
:104AB0005F914F913F912F910F900FBE0F901F90DC
:104AC00018951F93CF93DF93CDB7DEB7AA970FB694
:104AD000F894DEBF0FBECDBF8BE093E02091F100D4
:104AE000FC012193CF01F3E083319F07B9F70E94C6
:104AF000D1208091E80083FF1EC180910B0390912B
:104B00000C039A3008F017C1E92FF0E0E955F84D91
:104B10000C942927803899F0823809F00CC18091D3
:104B20000F038F70873008F006C18093E9008091F1
:104B3000EB0085FB882780F91092E90006C0809180
:104B4000070390910803911182609091E800977F8C
:104B50009093E8008093F1001092F1008091E800BA
:104B60008E77E5C0882309F4D3C0823009F0E3C012
:104B700080910D038111D6C080910F038F702FEFAC
:104B8000280F263008F0D7C08093E9002091EB0071
:104B900020FFC8C0933031F48091EB008062809395
:104BA000EB00C0C09091EB0090619093EB0021E08E
:104BB00030E001C0220F8A95EAF72093EA001092B4
:104BC000EA008091EB008860EACF8111B4C01091B7
:104BD0000D031F778091E3008078812B8093E300A1
:104BE0008091E800877F8093E8000E947E23809177
:104BF000E80080FFFCCF8091E30080688093E300B1
:104C000082E0111183E080930A0395C080588230BE
:104C100008F091C080910D0390910E038C3D23E02C
:104C20009207A1F583E08A838AE289834FB7F894DB
:104C3000DE01139620E03EE051E2E32FF0E05093D6
:104C40005700E49120FF03C0E295EF703F5FEF70E3
:104C50008E2F90E0EA30C0F0C7968D939D932F5F22
:104C6000243159F74FBF8091E800877F8093E80097
:104C70006AE270E0CE0101960E948D228091E800E8
:104C80008B778093E80057C0C096E7CF60910F0301
:104C900070911003AE014F5F5F4F0E94CE21BC01A7
:104CA000892B09F448C09091E800977F9093E80021
:104CB00089819A810E94EB22E1CF8038E1F58091D1
:104CC000E800877F8093E800809106038093F100DD
:104CD00045CF811130C090910D03923060F58091E5
:104CE000E800877F8093E800909306030E947E236C
:104CF00080910603882311F084E005C08091E300D1
:104D000087FDFACF81E080930A030E94C72013C079
:104D100080910D03813079F481E0933009F080E0D7
:104D2000809308031092E9008091E800877F8093C8
:104D3000E8000E947E238091E80083FF0AC08091F2
:104D4000E800877F8093E8008091EB008062809389
:104D5000EB00AA960FB6F894DEBF0FBECDBFDF9171
:104D6000CF911F9108950895CF9380910A038823CE
:104D7000A1F0C091E900CF709091EC00892F817073
:104D800090FD80E8C82B1092E9008091E80083FD37
:104D90000E946125CF70C093E900CF910895DB0197
:104DA0008F939F930E943E27BF91AF91A29F800D4A
:104DB000911DA39F900DB29F900D11240895AA1BE1
:104DC000BB1B51E107C0AA1FBB1FA617B70710F0F6
:104DD000A61BB70B881F991F5A95A9F78095909528
:104DE000BC01CD01089597FB072E16F4009407D05F
:104DF00077FD09D00E94DF2607FC05D03EF4909590
:104E000081959F4F0895709561957F4F0895A1E218
:104E10001A2EAA1BBB1BFD010DC0AA1FBB1FEE1F34
:104E2000FF1FA217B307E407F50720F0A21BB30B7F
:104E3000E40BF50B661F771F881F991F1A9469F7FB
:104E400060957095809590959B01AC01BD01CF0157
:104E50000895EE0FFF1F0590F491E02D0994A29F95
:104E6000B001B39FC001A39F700D811D1124911D3E
:104E7000B29F700D811D1124911D08950E942F274E
:104E8000A59F900DB49F900DA49F800D911D11249E
:104E90000895F999FECF92BD81BDF89A992780B502
:104EA0000895A8E1B0E042E050E00C947D27262F61
:104EB000F999FECF92BD81BDF89A019700B4021610
:104EC00039F01FBA20BD0FB6F894FA9AF99A0FBEBE
:104ED00008950396272F0E9458270E945727252FB1
:104EE0000E945827242F0C9458270196272F0E94A0
:104EF00058270C945727DC01CB01FC01F999FECF10
:104F000006C0F2BDE1BDF89A319600B40D92415051
:104F10005040B8F70895F894FFCFF809F809500AFF
:104F2000500AA20ABE0A250A250AC90A550B640BB3
:104F3000640B3C0C3C0C450C450C470C450C450CDB
:104F4000450C3C0C3C0C4C0C450C450C4C0C8A257F
:104F5000B2259B26B2259B26E52506269B265D26A7
:024F60006926C0
:104F62007C022808641E140A321E1C207320522060
:104F72004E204A2001E200E900EA00B500B600B77F
:104F820000CD008301CC008A019201940121022309
:104F92000224022502260227022A02B300B4006F6D
:104FA200007000818283E200E900EA00B500B600E9
:104FB200B700CD008301CC008A0192019401210245
:104FC200230224022502260227022A02B300B40089
:104FD2006F00700081828300FF0100010000FFFF6B
:084FE2000000010001FF0000C6
:00000001FF
